{
  "_format": "hh-sol-artifact-1",
  "contractName": "BuyItem",
  "sourceName": "contracts/BuyItem.sol",
  "abi": [
    {
      "inputs": [],
      "stateMutability": "nonpayable",
      "type": "constructor"
    },
    {
      "inputs": [],
      "name": "InvalidValue",
      "type": "error"
    },
    {
      "inputs": [
        {
          "internalType": "address",
          "name": "owner",
          "type": "address"
        }
      ],
      "name": "OwnableInvalidOwner",
      "type": "error"
    },
    {
      "inputs": [
        {
          "internalType": "address",
          "name": "account",
          "type": "address"
        }
      ],
      "name": "OwnableUnauthorizedAccount",
      "type": "error"
    },
    {
      "anonymous": false,
      "inputs": [
        {
          "indexed": true,
          "internalType": "address",
          "name": "from",
          "type": "address"
        },
        {
          "indexed": false,
          "internalType": "uint256",
          "name": "value",
          "type": "uint256"
        },
        {
          "indexed": false,
          "internalType": "bytes",
          "name": "payload",
          "type": "bytes"
        }
      ],
      "name": "BuyItemEvent",
      "type": "event"
    },
    {
      "anonymous": false,
      "inputs": [
        {
          "indexed": true,
          "internalType": "address",
          "name": "previousOwner",
          "type": "address"
        },
        {
          "indexed": true,
          "internalType": "address",
          "name": "newOwner",
          "type": "address"
        }
      ],
      "name": "OwnershipTransferred",
      "type": "event"
    },
    {
      "inputs": [
        {
          "internalType": "bytes",
          "name": "payload",
          "type": "bytes"
        }
      ],
      "name": "buy",
      "outputs": [],
      "stateMutability": "payable",
      "type": "function"
    },
    {
      "inputs": [],
      "name": "owner",
      "outputs": [
        {
          "internalType": "address",
          "name": "",
          "type": "address"
        }
      ],
      "stateMutability": "view",
      "type": "function"
    },
    {
      "inputs": [],
      "name": "renounceOwnership",
      "outputs": [],
      "stateMutability": "nonpayable",
      "type": "function"
    },
    {
      "inputs": [
        {
          "internalType": "address",
          "name": "newOwner",
          "type": "address"
        }
      ],
      "name": "transferOwnership",
      "outputs": [],
      "stateMutability": "nonpayable",
      "type": "function"
    },
    {
      "inputs": [],
      "name": "withdraw",
      "outputs": [],
      "stateMutability": "nonpayable",
      "type": "function"
    }
  ],
  "bytecode": "0x608060405234801561001057600080fd5b5033600073ffffffffffffffffffffffffffffffffffffffff168173ffffffffffffffffffffffffffffffffffffffff16036100845760006040517f1e4fbdf700000000000000000000000000000000000000000000000000000000815260040161007b919061019e565b60405180910390fd5b6100938161009960201b60201c565b506101b9565b60008060009054906101000a900473ffffffffffffffffffffffffffffffffffffffff169050816000806101000a81548173ffffffffffffffffffffffffffffffffffffffff021916908373ffffffffffffffffffffffffffffffffffffffff1602179055508173ffffffffffffffffffffffffffffffffffffffff168173ffffffffffffffffffffffffffffffffffffffff167f8be0079c531659141344cd1fd0a4f28419497f9722a3daafe3b4186f6b6457e060405160405180910390a35050565b600073ffffffffffffffffffffffffffffffffffffffff82169050919050565b60006101888261015d565b9050919050565b6101988161017d565b82525050565b60006020820190506101b3600083018461018f565b92915050565b6107d9806101c86000396000f3fe60806040526004361061004a5760003560e01c80633ccfd60b1461004f5780634559b89214610066578063715018a6146100825780638da5cb5b14610099578063f2fde38b146100c4575b600080fd5b34801561005b57600080fd5b506100646100ed565b005b610080600480360381019061007b91906104c9565b6101ab565b005b34801561008e57600080fd5b50610097610244565b005b3480156100a557600080fd5b506100ae610258565b6040516100bb9190610557565b60405180910390f35b3480156100d057600080fd5b506100eb60048036038101906100e6919061059e565b610281565b005b6100f5610307565b60006100ff610258565b73ffffffffffffffffffffffffffffffffffffffff1647604051610122906105fc565b60006040518083038185875af1925050503d806000811461015f576040519150601f19603f3d011682016040523d82523d6000602084013e610164565b606091505b50509050806101a8576040517f08c379a000000000000000000000000000000000000000000000000000000000815260040161019f9061066e565b60405180910390fd5b50565b600034116101ee576040517f08c379a00000000000000000000000000000000000000000000000000000000081526004016101e5906106da565b60405180910390fd5b3373ffffffffffffffffffffffffffffffffffffffff167f9505d37a21d00e1cee3c42578442d55cb93d8d92832bfa7b9ade659eb981e01c34848460405161023893929190610771565b60405180910390a25050565b61024c610307565b610256600061038e565b565b60008060009054906101000a900473ffffffffffffffffffffffffffffffffffffffff16905090565b610289610307565b600073ffffffffffffffffffffffffffffffffffffffff168173ffffffffffffffffffffffffffffffffffffffff16036102fb5760006040517f1e4fbdf70000000000000000000000000000000000000000000000000000000081526004016102f29190610557565b60405180910390fd5b6103048161038e565b50565b61030f610452565b73ffffffffffffffffffffffffffffffffffffffff1661032d610258565b73ffffffffffffffffffffffffffffffffffffffff161461038c57610350610452565b6040517f118cdaa70000000000000000000000000000000000000000000000000000000081526004016103839190610557565b60405180910390fd5b565b60008060009054906101000a900473ffffffffffffffffffffffffffffffffffffffff169050816000806101000a81548173ffffffffffffffffffffffffffffffffffffffff021916908373ffffffffffffffffffffffffffffffffffffffff1602179055508173ffffffffffffffffffffffffffffffffffffffff168173ffffffffffffffffffffffffffffffffffffffff167f8be0079c531659141344cd1fd0a4f28419497f9722a3daafe3b4186f6b6457e060405160405180910390a35050565b600033905090565b600080fd5b600080fd5b600080fd5b600080fd5b600080fd5b60008083601f84011261048957610488610464565b5b8235905067ffffffffffffffff8111156104a6576104a5610469565b5b6020830191508360018202830111156104c2576104c161046e565b5b9250929050565b600080602083850312156104e0576104df61045a565b5b600083013567ffffffffffffffff8111156104fe576104fd61045f565b5b61050a85828601610473565b92509250509250929050565b600073ffffffffffffffffffffffffffffffffffffffff82169050919050565b600061054182610516565b9050919050565b61055181610536565b82525050565b600060208201905061056c6000830184610548565b92915050565b61057b81610536565b811461058657600080fd5b50565b60008135905061059881610572565b92915050565b6000602082840312156105b4576105b361045a565b5b60006105c284828501610589565b91505092915050565b600081905092915050565b50565b60006105e66000836105cb565b91506105f1826105d6565b600082019050919050565b6000610607826105d9565b9150819050919050565b600082825260208201905092915050565b7f5472616e73666572206661696c65642e00000000000000000000000000000000600082015250565b6000610658601083610611565b915061066382610622565b602082019050919050565b600060208201905081810360008301526106878161064b565b9050919050565b7f6d7573742073656e642065746800000000000000000000000000000000000000600082015250565b60006106c4600d83610611565b91506106cf8261068e565b602082019050919050565b600060208201905081810360008301526106f3816106b7565b9050919050565b6000819050919050565b61070d816106fa565b82525050565b600082825260208201905092915050565b82818337600083830152505050565b6000601f19601f8301169050919050565b60006107508385610713565b935061075d838584610724565b61076683610733565b840190509392505050565b60006040820190506107866000830186610704565b8181036020830152610799818486610744565b905094935050505056fea264697066735822122000785b7228faf8880b5afaf9c706d446f70a77b35e9eff531809d34e1b5d130664736f6c634300081c0033",
  "linkReferences": {},
  "deployedLinkReferences": {}
}